{
  "address": "0x5FbDB2315678afecb367f032d93F642f64180aa3",
  "abi": [
    {
      "inputs": [],
      "name": "HandlesAlreadySavedForRequestID",
      "type": "error"
    },
    {
      "anonymous": false,
      "inputs": [
        {
          "indexed": true,
          "internalType": "uint256",
          "name": "eventId",
          "type": "uint256"
        },
        {
          "indexed": false,
          "internalType": "uint256",
          "name": "actualPrice",
          "type": "uint256"
        }
      ],
      "name": "ActualPriceSet",
      "type": "event"
    },
    {
      "anonymous": false,
      "inputs": [
        {
          "indexed": true,
          "internalType": "uint256",
          "name": "eventId",
          "type": "uint256"
        },
        {
          "indexed": false,
          "internalType": "uint256",
          "name": "requestId",
          "type": "uint256"
        }
      ],
      "name": "FinalizeRequested",
      "type": "event"
    },
    {
      "anonymous": false,
      "inputs": [
        {
          "indexed": true,
          "internalType": "uint256",
          "name": "eventId",
          "type": "uint256"
        },
        {
          "indexed": false,
          "internalType": "string",
          "name": "title",
          "type": "string"
        },
        {
          "indexed": false,
          "internalType": "enum CryptoPriceGuess.TokenType",
          "name": "tokenType",
          "type": "uint8"
        },
        {
          "indexed": true,
          "internalType": "address",
          "name": "admin",
          "type": "address"
        }
      ],
      "name": "PredictionEventCreated",
      "type": "event"
    },
    {
      "anonymous": false,
      "inputs": [
        {
          "indexed": true,
          "internalType": "uint256",
          "name": "eventId",
          "type": "uint256"
        }
      ],
      "name": "PredictionEventEnded",
      "type": "event"
    },
    {
      "anonymous": false,
      "inputs": [
        {
          "indexed": true,
          "internalType": "uint256",
          "name": "eventId",
          "type": "uint256"
        },
        {
          "indexed": false,
          "internalType": "uint32",
          "name": "decryptedAveragePrice",
          "type": "uint32"
        },
        {
          "indexed": false,
          "internalType": "uint256",
          "name": "actualPrice",
          "type": "uint256"
        }
      ],
      "name": "PredictionEventFinalized",
      "type": "event"
    },
    {
      "anonymous": false,
      "inputs": [
        {
          "indexed": true,
          "internalType": "uint256",
          "name": "eventId",
          "type": "uint256"
        },
        {
          "indexed": true,
          "internalType": "address",
          "name": "user",
          "type": "address"
        }
      ],
      "name": "PredictionSubmitted",
      "type": "event"
    },
    {
      "inputs": [
        {
          "internalType": "string",
          "name": "_title",
          "type": "string"
        },
        {
          "internalType": "enum CryptoPriceGuess.TokenType",
          "name": "_tokenType",
          "type": "uint8"
        },
        {
          "internalType": "uint256",
          "name": "_targetDate",
          "type": "uint256"
        },
        {
          "internalType": "uint256",
          "name": "_durationInHours",
          "type": "uint256"
        }
      ],
      "name": "createPredictionEvent",
      "outputs": [
        {
          "internalType": "uint256",
          "name": "",
          "type": "uint256"
        }
      ],
      "stateMutability": "nonpayable",
      "type": "function"
    },
    {
      "inputs": [
        {
          "internalType": "uint256",
          "name": "requestId",
          "type": "uint256"
        },
        {
          "internalType": "bytes",
          "name": "cleartexts",
          "type": "bytes"
        },
        {
          "internalType": "bytes[]",
          "name": "",
          "type": "bytes[]"
        }
      ],
      "name": "decryptionCallback",
      "outputs": [
        {
          "internalType": "bool",
          "name": "",
          "type": "bool"
        }
      ],
      "stateMutability": "nonpayable",
      "type": "function"
    },
    {
      "inputs": [
        {
          "internalType": "uint256",
          "name": "_eventId",
          "type": "uint256"
        }
      ],
      "name": "endPredictionEvent",
      "outputs": [],
      "stateMutability": "nonpayable",
      "type": "function"
    },
    {
      "inputs": [
        {
          "internalType": "uint256",
          "name": "_eventId",
          "type": "uint256"
        }
      ],
      "name": "finalizePredictionEvent",
      "outputs": [],
      "stateMutability": "nonpayable",
      "type": "function"
    },
    {
      "inputs": [
        {
          "internalType": "uint256",
          "name": "_eventId",
          "type": "uint256"
        }
      ],
      "name": "getDecryptedAveragePrice",
      "outputs": [
        {
          "internalType": "uint32",
          "name": "",
          "type": "uint32"
        }
      ],
      "stateMutability": "view",
      "type": "function"
    },
    {
      "inputs": [
        {
          "internalType": "uint256",
          "name": "_eventId",
          "type": "uint256"
        }
      ],
      "name": "getEncryptedPriceSum",
      "outputs": [
        {
          "internalType": "euint32",
          "name": "",
          "type": "bytes32"
        }
      ],
      "stateMutability": "view",
      "type": "function"
    },
    {
      "inputs": [],
      "name": "getEventCount",
      "outputs": [
        {
          "internalType": "uint256",
          "name": "",
          "type": "uint256"
        }
      ],
      "stateMutability": "view",
      "type": "function"
    },
    {
      "inputs": [
        {
          "internalType": "uint256",
          "name": "_eventId",
          "type": "uint256"
        }
      ],
      "name": "getPredictionEvent",
      "outputs": [
        {
          "internalType": "string",
          "name": "title",
          "type": "string"
        },
        {
          "internalType": "enum CryptoPriceGuess.TokenType",
          "name": "tokenType",
          "type": "uint8"
        },
        {
          "internalType": "uint256",
          "name": "targetDate",
          "type": "uint256"
        },
        {
          "internalType": "uint256",
          "name": "endTime",
          "type": "uint256"
        },
        {
          "internalType": "bool",
          "name": "isActive",
          "type": "bool"
        },
        {
          "internalType": "bool",
          "name": "isFinalized",
          "type": "bool"
        },
        {
          "internalType": "address",
          "name": "admin",
          "type": "address"
        },
        {
          "internalType": "uint256",
          "name": "totalPredictions",
          "type": "uint256"
        },
        {
          "internalType": "uint256",
          "name": "actualPrice",
          "type": "uint256"
        },
        {
          "internalType": "uint32",
          "name": "decryptedAveragePrice",
          "type": "uint32"
        }
      ],
      "stateMutability": "view",
      "type": "function"
    },
    {
      "inputs": [
        {
          "internalType": "uint256",
          "name": "_eventId",
          "type": "uint256"
        },
        {
          "internalType": "address",
          "name": "_user",
          "type": "address"
        }
      ],
      "name": "getUserEncryptedPrediction",
      "outputs": [
        {
          "internalType": "euint32",
          "name": "",
          "type": "bytes32"
        }
      ],
      "stateMutability": "view",
      "type": "function"
    },
    {
      "inputs": [
        {
          "internalType": "uint256",
          "name": "_eventId",
          "type": "uint256"
        },
        {
          "internalType": "address",
          "name": "_user",
          "type": "address"
        }
      ],
      "name": "hasUserPredicted",
      "outputs": [
        {
          "internalType": "bool",
          "name": "",
          "type": "bool"
        }
      ],
      "stateMutability": "view",
      "type": "function"
    },
    {
      "inputs": [
        {
          "internalType": "uint256",
          "name": "",
          "type": "uint256"
        }
      ],
      "name": "predictionEvents",
      "outputs": [
        {
          "internalType": "string",
          "name": "title",
          "type": "string"
        },
        {
          "internalType": "enum CryptoPriceGuess.TokenType",
          "name": "tokenType",
          "type": "uint8"
        },
        {
          "internalType": "uint256",
          "name": "targetDate",
          "type": "uint256"
        },
        {
          "internalType": "uint256",
          "name": "endTime",
          "type": "uint256"
        },
        {
          "internalType": "bool",
          "name": "isActive",
          "type": "bool"
        },
        {
          "internalType": "bool",
          "name": "isFinalized",
          "type": "bool"
        },
        {
          "internalType": "address",
          "name": "admin",
          "type": "address"
        },
        {
          "internalType": "uint256",
          "name": "totalPredictions",
          "type": "uint256"
        },
        {
          "internalType": "uint256",
          "name": "actualPrice",
          "type": "uint256"
        },
        {
          "internalType": "euint32",
          "name": "encryptedPriceSum",
          "type": "bytes32"
        },
        {
          "internalType": "uint32",
          "name": "decryptedAveragePrice",
          "type": "uint32"
        }
      ],
      "stateMutability": "view",
      "type": "function"
    },
    {
      "inputs": [],
      "name": "protocolId",
      "outputs": [
        {
          "internalType": "uint256",
          "name": "",
          "type": "uint256"
        }
      ],
      "stateMutability": "pure",
      "type": "function"
    },
    {
      "inputs": [
        {
          "internalType": "uint256",
          "name": "_eventId",
          "type": "uint256"
        },
        {
          "internalType": "uint256",
          "name": "_actualPrice",
          "type": "uint256"
        }
      ],
      "name": "setActualPrice",
      "outputs": [],
      "stateMutability": "nonpayable",
      "type": "function"
    },
    {
      "inputs": [
        {
          "internalType": "uint256",
          "name": "_eventId",
          "type": "uint256"
        },
        {
          "internalType": "externalEuint32",
          "name": "_encryptedPrice",
          "type": "bytes32"
        },
        {
          "internalType": "bytes",
          "name": "inputProof",
          "type": "bytes"
        }
      ],
      "name": "submitPrediction",
      "outputs": [],
      "stateMutability": "nonpayable",
      "type": "function"
    },
    {
      "inputs": [
        {
          "internalType": "uint256",
          "name": "",
          "type": "uint256"
        },
        {
          "internalType": "address",
          "name": "",
          "type": "address"
        }
      ],
      "name": "userPredictions",
      "outputs": [
        {
          "internalType": "euint32",
          "name": "encryptedPrice",
          "type": "bytes32"
        },
        {
          "internalType": "uint256",
          "name": "timestamp",
          "type": "uint256"
        },
        {
          "internalType": "bool",
          "name": "exists",
          "type": "bool"
        }
      ],
      "stateMutability": "view",
      "type": "function"
    }
  ],
  "transactionHash": "0x9d678e7132d8a7248394925b47d030e115f0fe795e89781b10f330b5f5ea6e42",
  "args": [],
  "numDeployments": 1,
  "solcInputHash": "8d324ca208de3a03ba8b41eea0ee20b4",
  "bytecode": "0x608060405234801561000f575f5ffd5b5061018a6100ae604080516080810182525f80825260208201819052918101829052606081019190915250604080516080810182527350157cffd6bbfa2dece204a89ec419c23ef5755d815273cd3ab3bd6bcc0c0bf3e27912a92043e817b1cf69602082015273a02cda4ca3a71d7c46997716f4283aa851c2881291810191909152731364cbbf2cdf5032c47d8226a6f6fbd2afcdacac606082015290565b80517f9e7b61f58c47dc699ac88507c4f5bb9f121c03808c5676a8078fe583e464970080546001600160a01b03199081166001600160a01b039384161790915560208301517f9e7b61f58c47dc699ac88507c4f5bb9f121c03808c5676a8078fe583e46497018054831691841691909117905560408301517f9e7b61f58c47dc699ac88507c4f5bb9f121c03808c5676a8078fe583e46497028054831691841691909117905560608301517f9e7b61f58c47dc699ac88507c4f5bb9f121c03808c5676a8078fe583e46497038054909216921691909117905550565b6121d9806101975f395ff3fe608060405234801561000f575f5ffd5b50600436106100f0575f3560e01c8063937e406a11610093578063acc0f1dc11610063578063acc0f1dc1461026e578063be524e4614610281578063d9e48f5c14610294578063da1f12ab1461029b575f5ffd5b8063937e406a146101b557806398a57b1f146101de5780639e5e4a4714610233578063a371027114610246575f5ffd5b80633af02dce116100ce5780633af02dce146101525780634a67faaa1461016557806367746211146101785780637174c43c1461018b575f5ffd5b8063149574e1146100f45780631f8550e11461011c57806321f036871461013d575b5f5ffd5b610107610102366004611a84565b6102a3565b60405190151581526020015b60405180910390f35b61012f61012a366004611a84565b6102d2565b604051908152602001610113565b61015061014b366004611abd565b6103be565b005b61012f610160366004611b72565b61050f565b610107610173366004611c01565b6106cd565b610150610186366004611d02565b6108a1565b61019e610199366004611abd565b610c17565b6040516101139b9a99989796959493929190611dd4565b6101c86101c3366004611abd565b610d1d565b6040516101139a99989796959493929190611e4c565b6102166101ec366004611a84565b600160208181525f9384526040808520909152918352912080549181015460029091015460ff1683565b604080519384526020840192909252151590820152606001610113565b610150610241366004611abd565b610e9c565b610259610254366004611abd565b61114f565b60405163ffffffff9091168152602001610113565b61012f61027c366004611abd565b611248565b61015061028f366004611ebe565b6112bc565b5f5461012f565b61271161012f565b5f8281526001602090815260408083206001600160a01b038516845290915290206002015460ff165b92915050565b5f8054839081106103215760405162461bcd60e51b8152602060048201526014602482015273115d995b9d08191bd95cc81b9bdd08195e1a5cdd60621b60448201526064015b60405180910390fd5b5f8481526001602090815260408083206001600160a01b038716845290915290206002015460ff166103955760405162461bcd60e51b815260206004820152601660248201527f5573657220686173206e6f7420707265646963746564000000000000000000006044820152606401610318565b50505f9182526001602090815260408084206001600160a01b0393909316845291905290205490565b5f54819081106104075760405162461bcd60e51b8152602060048201526014602482015273115d995b9d08191bd95cc81b9bdd08195e1a5cdd60621b6044820152606401610318565b5f5f838154811061041a5761041a611ede565b5f9182526020909120600990910201600481015490915060ff166104805760405162461bcd60e51b815260206004820152601060248201527f4576656e74206e6f7420616374697665000000000000000000000000000000006044820152606401610318565b80600301544210156104d45760405162461bcd60e51b815260206004820152601760248201527f4576656e7420686173206e6f7420656e646564207965740000000000000000006044820152606401610318565b60048101805460ff1916905560405183907f56e917cab8fcda8590d4d2e00670ab5a8a607111c71d35d2e140ff84d1cc6dfa905f90a2505050565b5f4283116105695760405162461bcd60e51b815260206004820152602160248201527f5461726765742064617465206d75737420626520696e207468652066757475726044820152606560f81b6064820152608401610318565b5f82116105b85760405162461bcd60e51b815260206004820152601f60248201527f4475726174696f6e206d7573742062652067726561746572207468616e2030006044820152606401610318565b5f8054600181018255908052600981027f290decd9548b62a8d60345a988386fc84ba6bc95484008f6362f93160ef3e56301806105f58882611f70565b5060018082018054889260ff1990911690838181111561061757610617611dac565b02179055506002810185905561062f84610e1061203f565b6106399042612056565b600382015560048101805462010000339081027fffffffffffffffffffff00000000000000000000000000000000000000000000909216919091176001179091555f60058301819055600683015560405183907fb15b33205ade8a2e0a59cd5ce13871706bbdefd1bea57117822f7658e1a88b9b906106bb908b908b90612069565b60405180910390a35095945050505050565b5f83815260026020526040812054815482908190839081106106f1576106f1611ede565b905f5260205f20906009020190508060040160019054906101000a900460ff161561075e5760405162461bcd60e51b815260206004820152601760248201527f4576656e7420616c72656164792066696e616c697a65640000000000000000006044820152606401610318565b600481015460ff16156107b35760405162461bcd60e51b815260206004820152601260248201527f4576656e74207374696c6c2061637469766500000000000000000000000000006044820152606401610318565b6004855110156108055760405162461bcd60e51b815260206004820152601960248201527f496e76616c696420636c6561727465787473206c656e677468000000000000006044820152606401610318565b5f602086015160e01c90505f826005015482610821919061208a565b60088401805463ffffffff831663ffffffff19909116811790915560048501805461ff001916610100179055600685015460408051928352602083019190915291925085917f91188dea6f6d006a57f45cc0c3b8e707eceda09bcc87ca37ecb5640a8f4f421f910160405180910390a260019450505050505b9392505050565b5f54849081106108ea5760405162461bcd60e51b8152602060048201526014602482015273115d995b9d08191bd95cc81b9bdd08195e1a5cdd60621b6044820152606401610318565b845f81815481106108fd576108fd611ede565b5f91825260209091206004600990920201015460ff1661095f5760405162461bcd60e51b815260206004820152601360248201527f4576656e74206973206e6f7420616374697665000000000000000000000000006044820152606401610318565b5f818154811061097157610971611ede565b905f5260205f2090600902016003015442106109cf5760405162461bcd60e51b815260206004820152600f60248201527f4576656e742068617320656e64656400000000000000000000000000000000006044820152606401610318565b5f81815481106109e1576109e1611ede565b905f5260205f20906009020160040160019054906101000a900460ff1615610a4b5760405162461bcd60e51b815260206004820152601260248201527f4576656e742069732066696e616c697a656400000000000000000000000000006044820152606401610318565b5f86815260016020908152604080832033845290915290206002015460ff1615610ab75760405162461bcd60e51b815260206004820152601c60248201527f416c7265616479207375626d69747465642070726564696374696f6e000000006044820152606401610318565b5f5f8781548110610aca57610aca611ede565b905f5260205f20906009020190505f610b188787878080601f0160208091040260200160405190810160405280939291908181526020018383808284375f920191909152506114af92505050565b6040805160608101825282815242602080830191825260018385018181525f8f81528284528681203382529093529482209351845591519183019190915591516002909101805460ff1916911515919091179055600584015491925003610b855760078201819055610b99565b610b938260070154826114bc565b60078301555b610ba682600701546114ea565b5060078201546004830154610bca91906201000090046001600160a01b03166114f9565b50600582018054905f610bdc836120bd565b9091555050604051339089907f2e5591dc3bdf69213e1be2f7ad86937078a5b387dfd176b577fee221058fb9f1905f90a35050505050505050565b5f8181548110610c25575f80fd5b905f5260205f2090600902015f91509050805f018054610c4490611ef2565b80601f0160208091040260200160405190810160405280929190818152602001828054610c7090611ef2565b8015610cbb5780601f10610c9257610100808354040283529160200191610cbb565b820191905f5260205f20905b815481529060010190602001808311610c9e57829003601f168201915b505050506001830154600284015460038501546004860154600587015460068801546007890154600890990154979860ff96871698959750939580841695610100850490911694620100009094046001600160a01b0316939063ffffffff168b565b60605f5f5f5f5f5f5f5f5f8a5f805490508110610d735760405162461bcd60e51b8152602060048201526014602482015273115d995b9d08191bd95cc81b9bdd08195e1a5cdd60621b6044820152606401610318565b5f5f8d81548110610d8657610d86611ede565b5f918252602090912060099091020160018101546002820154600383015460048401546005850154600686015460088701548754979850889760ff9788169780861695610100810490911694620100009091046001600160a01b0316939092909163ffffffff909116908a90610dfb90611ef2565b80601f0160208091040260200160405190810160405280929190818152602001828054610e2790611ef2565b8015610e725780601f10610e4957610100808354040283529160200191610e72565b820191905f5260205f20905b815481529060010190602001808311610e5557829003601f168201915b505050505099509b509b509b509b509b509b509b509b509b509b5050509193959799509193959799565b5f5481908110610ee55760405162461bcd60e51b8152602060048201526014602482015273115d995b9d08191bd95cc81b9bdd08195e1a5cdd60621b6044820152606401610318565b81336001600160a01b03165f8281548110610f0257610f02611ede565b5f9182526020909120600990910201600401546201000090046001600160a01b031614610f7c5760405162461bcd60e51b815260206004820152602260248201527f4f6e6c792061646d696e2063616e20706572666f726d2074686973206163746960448201526137b760f11b6064820152608401610318565b5f5f8481548110610f8f57610f8f611ede565b5f9182526020909120600990910201600481015490915060ff1615610ff65760405162461bcd60e51b815260206004820152601260248201527f4576656e74207374696c6c2061637469766500000000000000000000000000006044820152606401610318565b6004810154610100900460ff16156110505760405162461bcd60e51b815260206004820152601760248201527f4576656e7420616c72656164792066696e616c697a65640000000000000000006044820152606401610318565b5f8160050154116110a35760405162461bcd60e51b815260206004820152601a60248201527f4e6f2070726564696374696f6e7320746f2066696e616c697a650000000000006044820152606401610318565b6040805160018082528183019092525f91602080830190803683375050506007830154909150815f815181106110db576110db611ede565b60209081029190910101525f6110f882632533fd5560e11b61150b565b5f81815260026020526040908190208890555190915086907f78b1c4f4a995ee0900557ab63afc39e57dcce05ef2e622329233c0a9f0f0ef5e9061113f9084815260200190565b60405180910390a2505050505050565b5f8054829081106111995760405162461bcd60e51b8152602060048201526014602482015273115d995b9d08191bd95cc81b9bdd08195e1a5cdd60621b6044820152606401610318565b5f83815481106111ab576111ab611ede565b905f5260205f20906009020160040160019054906101000a900460ff166112145760405162461bcd60e51b815260206004820152601360248201527f4576656e74206e6f742066696e616c697a6564000000000000000000000000006044820152606401610318565b5f838154811061122657611226611ede565b5f91825260209091206008600990920201015463ffffffff1691505b50919050565b5f8054829081106112925760405162461bcd60e51b8152602060048201526014602482015273115d995b9d08191bd95cc81b9bdd08195e1a5cdd60621b6044820152606401610318565b5f83815481106112a4576112a4611ede565b905f5260205f20906009020160070154915050919050565b5f54829081106113055760405162461bcd60e51b8152602060048201526014602482015273115d995b9d08191bd95cc81b9bdd08195e1a5cdd60621b6044820152606401610318565b82336001600160a01b03165f828154811061132257611322611ede565b5f9182526020909120600990910201600401546201000090046001600160a01b03161461139c5760405162461bcd60e51b815260206004820152602260248201527f4f6e6c792061646d696e2063616e20706572666f726d2074686973206163746960448201526137b760f11b6064820152608401610318565b5f5f85815481106113af576113af611ede565b905f5260205f209060090201905080600201544210156114115760405162461bcd60e51b815260206004820152601760248201527f5461726765742064617465206e6f7420726561636865640000000000000000006044820152606401610318565b5f841161146c5760405162461bcd60e51b815260206004820152602360248201527f41637475616c207072696365206d75737420626520677265617465722074686160448201526206e20360ec1b6064820152608401610318565b6006810184905560405184815285907f17829879f8687fb2faf5fb54a108aa75d4f06060418c7d2d1ea9dfc4d915c30e9060200160405180910390a25050505050565b5f61089a83836004611517565b5f826114ce576114cb5f611637565b92505b816114df576114dc5f611637565b91505b61089a83835f611649565b5f6114f58230611729565b5090565b5f6115048383611729565b5090919050565b5f61089a83835f6117b2565b7f9e7b61f58c47dc699ac88507c4f5bb9f121c03808c5676a8078fe583e46497015460405163196d0b9b60e01b81525f917f9e7b61f58c47dc699ac88507c4f5bb9f121c03808c5676a8078fe583e4649700916001600160a01b039091169063196d0b9b906115909088903390899089906004016120e5565b6020604051808303815f875af11580156115ac573d5f5f3e3d5ffd5b505050506040513d601f19601f820116820180604052508101906115d09190612124565b8154604051630f8e573b60e21b8152600481018390523360248201529193506001600160a01b031690633e395cec906044015f604051808303815f87803b158015611619575f5ffd5b505af115801561162b573d5f5f3e3d5ffd5b50505050509392505050565b5f6102cc8263ffffffff1660046118e0565b5f5f821561165c5750600160f81b61165f565b505f5b5f7f9e7b61f58c47dc699ac88507c4f5bb9f121c03808c5676a8078fe583e4649700600181015460405163022f65e760e31b815260048101899052602481018890527fff00000000000000000000000000000000000000000000000000000000000000851660448201529192506001600160a01b03169063117b2f38906064016020604051808303815f875af11580156116fb573d5f5f3e3d5ffd5b505050506040513d601f19601f8201168201806040525081019061171f9190612124565b9695505050505050565b5f7f9e7b61f58c47dc699ac88507c4f5bb9f121c03808c5676a8078fe583e46497008054604051635ca4b5b160e11b8152600481018690526001600160a01b03858116602483015292935091169063b9496b62906044015f604051808303815f87803b158015611797575f5ffd5b505af11580156117a9573d5f5f3e3d5ffd5b50505050505050565b7f878245876662ba28a480c5ea71726db859fb50222b0a3d7cbbc21cfa336faf0080547f9e7b61f58c47dc699ac88507c4f5bb9f121c03808c5676a8078fe583e46497008054604051637d6e912360e11b81529293926001600160a01b039091169063fadd224690611828908990600401612175565b5f604051808303815f87803b15801561183f575f5ffd5b505af1158015611851573d5f5f3e3d5ffd5b5050506002820154604051633263b83b60e01b81526001600160a01b039091169150633263b83b90869061188d9087908b908b90600401612187565b5f604051808303818588803b1580156118a4575f5ffd5b505af11580156118b6573d5f5f3e3d5ffd5b50505050506118c5838761199d565b8154825f6118d2836120bd565b919050555050509392505050565b7f9e7b61f58c47dc699ac88507c4f5bb9f121c03808c5676a8078fe583e464970154604051639cd07acb60e01b81525f917f9e7b61f58c47dc699ac88507c4f5bb9f121c03808c5676a8078fe583e4649700916001600160a01b0390911690639cd07acb9061195590879087906004016121b8565b6020604051808303815f875af1158015611971573d5f5f3e3d5ffd5b505050506040513d601f19601f820116820180604052508101906119959190612124565b949350505050565b5f8281527f878245876662ba28a480c5ea71726db859fb50222b0a3d7cbbc21cfa336faf0160205260409020547f878245876662ba28a480c5ea71726db859fb50222b0a3d7cbbc21cfa336faf009015611a0a57604051633f06d22b60e01b815260040160405180910390fd5b5f83815260018201602090815260409091208351611a2a92850190611a30565b50505050565b828054828255905f5260205f20908101928215611a69579160200282015b82811115611a69578251825591602001919060010190611a4e565b506114f59291505b808211156114f5575f8155600101611a71565b5f5f60408385031215611a95575f5ffd5b8235915060208301356001600160a01b0381168114611ab2575f5ffd5b809150509250929050565b5f60208284031215611acd575f5ffd5b5035919050565b634e487b7160e01b5f52604160045260245ffd5b604051601f8201601f1916810167ffffffffffffffff81118282101715611b1157611b11611ad4565b604052919050565b5f5f67ffffffffffffffff841115611b3357611b33611ad4565b50601f8301601f1916602001611b4881611ae8565b915050828152838383011115611b5c575f5ffd5b828260208301375f602084830101529392505050565b5f5f5f5f60808587031215611b85575f5ffd5b843567ffffffffffffffff811115611b9b575f5ffd5b8501601f81018713611bab575f5ffd5b611bba87823560208401611b19565b945050602085013560028110611bce575f5ffd5b93969395505050506040820135916060013590565b5f82601f830112611bf2575f5ffd5b61089a83833560208501611b19565b5f5f5f60608486031215611c13575f5ffd5b83359250602084013567ffffffffffffffff811115611c30575f5ffd5b611c3c86828701611be3565b925050604084013567ffffffffffffffff811115611c58575f5ffd5b8401601f81018613611c68575f5ffd5b803567ffffffffffffffff811115611c8257611c82611ad4565b8060051b611c9260208201611ae8565b91825260208184018101929081019089841115611cad575f5ffd5b6020850192505b83831015611cf357823567ffffffffffffffff811115611cd2575f5ffd5b611ce18b602083890101611be3565b83525060209283019290910190611cb4565b80955050505050509250925092565b5f5f5f5f60608587031215611d15575f5ffd5b8435935060208501359250604085013567ffffffffffffffff811115611d39575f5ffd5b8501601f81018713611d49575f5ffd5b803567ffffffffffffffff811115611d5f575f5ffd5b876020828401011115611d70575f5ffd5b949793965060200194505050565b5f81518084528060208401602086015e5f602082860101526020601f19601f83011685010191505092915050565b634e487b7160e01b5f52602160045260245ffd5b60028110611dd057611dd0611dac565b9052565b61016081525f611de861016083018e611d7e565b9050611df7602083018d611dc0565b604082019a909a526060810198909852951515608088015293151560a08701526001600160a01b039290921660c086015260e085015261010084015261012083015263ffffffff166101409091015292915050565b61014081525f611e6061014083018d611d7e565b9050611e6f602083018c611dc0565b60408201999099526060810197909752941515608087015292151560a08601526001600160a01b039190911660c085015260e084015261010083015263ffffffff166101209091015292915050565b5f5f60408385031215611ecf575f5ffd5b50508035926020909101359150565b634e487b7160e01b5f52603260045260245ffd5b600181811c90821680611f0657607f821691505b60208210810361124257634e487b7160e01b5f52602260045260245ffd5b601f821115611f6b57805f5260205f20601f840160051c81016020851015611f495750805b601f840160051c820191505b81811015611f68575f8155600101611f55565b50505b505050565b815167ffffffffffffffff811115611f8a57611f8a611ad4565b611f9e81611f988454611ef2565b84611f24565b6020601f821160018114611fd0575f8315611fb95750848201515b5f19600385901b1c1916600184901b178455611f68565b5f84815260208120601f198516915b82811015611fff5787850151825560209485019460019092019101611fdf565b508482101561201c57868401515f19600387901b60f8161c191681555b50505050600190811b01905550565b634e487b7160e01b5f52601160045260245ffd5b80820281158282048414176102cc576102cc61202b565b808201808211156102cc576102cc61202b565b604081525f61207b6040830185611d7e565b905061089a6020830184611dc0565b5f63ffffffff8316806120ab57634e487b7160e01b5f52601260045260245ffd5b8063ffffffff84160491505092915050565b5f600182016120ce576120ce61202b565b5060010190565b60548110611dd057611dd0611dac565b8481526001600160a01b0384166020820152608060408201525f61210c6080830185611d7e565b905061211b60608301846120d5565b95945050505050565b5f60208284031215612134575f5ffd5b5051919050565b5f8151808452602084019350602083015f5b8281101561216b57815186526020958601959091019060010161214d565b5093949350505050565b602081525f61089a602083018461213b565b838152606060208201525f61219f606083018561213b565b905063ffffffff60e01b83166040830152949350505050565b8281526040810161089a60208301846120d556fea164736f6c634300081b000a",
  "devdoc": {
    "details": "Predictions are encrypted using FHE and only decrypted after the prediction period ends",
    "kind": "dev",
    "methods": {
      "createPredictionEvent(string,uint8,uint256,uint256)": {
        "params": {
          "_durationInHours": "Duration of the prediction period in hours",
          "_targetDate": "The target date for price prediction (Unix timestamp)",
          "_title": "The title of the prediction event",
          "_tokenType": "The token type (BTC or ETH)"
        }
      },
      "decryptionCallback(uint256,bytes,bytes[])": {
        "details": "Expects the decrypted sum in bytes"
      },
      "endPredictionEvent(uint256)": {
        "params": {
          "_eventId": "The ID of the prediction event"
        }
      },
      "finalizePredictionEvent(uint256)": {
        "params": {
          "_eventId": "The ID of the prediction event"
        }
      },
      "getDecryptedAveragePrice(uint256)": {
        "params": {
          "_eventId": "The ID of the prediction event"
        }
      },
      "getEncryptedPriceSum(uint256)": {
        "params": {
          "_eventId": "The ID of the prediction event"
        },
        "returns": {
          "_0": "The encrypted sum of all predictions"
        }
      },
      "getPredictionEvent(uint256)": {
        "params": {
          "_eventId": "The ID of the prediction event"
        }
      },
      "setActualPrice(uint256,uint256)": {
        "params": {
          "_actualPrice": "The actual price at target date (in USD * 100)",
          "_eventId": "The ID of the prediction event"
        }
      },
      "submitPrediction(uint256,bytes32,bytes)": {
        "details": "Users encrypt their price prediction before submitting",
        "params": {
          "_encryptedPrice": "The encrypted price prediction (in USD * 100, e.g., 50000 = $50,000)",
          "_eventId": "The ID of the prediction event",
          "inputProof": "The proof for the encrypted input"
        }
      }
    },
    "title": "Crypto Price Guess - Anonymous Price Prediction Market",
    "version": 1
  },
  "userdoc": {
    "errors": {
      "HandlesAlreadySavedForRequestID()": [
        {
          "notice": "Returned if some handles were already saved for corresponding ID."
        }
      ]
    },
    "kind": "user",
    "methods": {
      "createPredictionEvent(string,uint8,uint256,uint256)": {
        "notice": "Create a new prediction event"
      },
      "decryptionCallback(uint256,bytes,bytes[])": {
        "notice": "Callback called by the FHE decryption oracle"
      },
      "endPredictionEvent(uint256)": {
        "notice": "End a prediction event (anyone can call after end time)"
      },
      "finalizePredictionEvent(uint256)": {
        "notice": "Request decryption and calculate average prediction (admin only)"
      },
      "getDecryptedAveragePrice(uint256)": {
        "notice": "Get the decrypted average price (only available after finalize)"
      },
      "getEncryptedPriceSum(uint256)": {
        "notice": "Get the encrypted price sum (only admin can decrypt)"
      },
      "getEventCount()": {
        "notice": "Get total number of prediction events"
      },
      "getPredictionEvent(uint256)": {
        "notice": "Get prediction event details"
      },
      "getUserEncryptedPrediction(uint256,address)": {
        "notice": "Get user's encrypted prediction (user can decrypt their own)"
      },
      "hasUserPredicted(uint256,address)": {
        "notice": "Check if a user has submitted a prediction"
      },
      "setActualPrice(uint256,uint256)": {
        "notice": "Set the actual price after target date (admin only)"
      },
      "submitPrediction(uint256,bytes32,bytes)": {
        "notice": "Submit an encrypted price prediction"
      }
    },
    "notice": "A privacy-preserving prediction market where users submit encrypted price predictions",
    "version": 1
  },
  "storageLayout": {
    "storage": [
      {
        "astId": 39076,
        "contract": "contracts/CryptoPriceGuess.sol:CryptoPriceGuess",
        "label": "predictionEvents",
        "offset": 0,
        "slot": "0",
        "type": "t_array(t_struct(PredictionEvent)39064_storage)dyn_storage"
      },
      {
        "astId": 39083,
        "contract": "contracts/CryptoPriceGuess.sol:CryptoPriceGuess",
        "label": "userPredictions",
        "offset": 0,
        "slot": "1",
        "type": "t_mapping(t_uint256,t_mapping(t_address,t_struct(UserPrediction)39072_storage))"
      },
      {
        "astId": 39087,
        "contract": "contracts/CryptoPriceGuess.sol:CryptoPriceGuess",
        "label": "_requestToEvent",
        "offset": 0,
        "slot": "2",
        "type": "t_mapping(t_uint256,t_uint256)"
      }
    ],
    "types": {
      "t_address": {
        "encoding": "inplace",
        "label": "address",
        "numberOfBytes": "20"
      },
      "t_array(t_struct(PredictionEvent)39064_storage)dyn_storage": {
        "base": "t_struct(PredictionEvent)39064_storage",
        "encoding": "dynamic_array",
        "label": "struct CryptoPriceGuess.PredictionEvent[]",
        "numberOfBytes": "32"
      },
      "t_bool": {
        "encoding": "inplace",
        "label": "bool",
        "numberOfBytes": "1"
      },
      "t_enum(TokenType)39039": {
        "encoding": "inplace",
        "label": "enum CryptoPriceGuess.TokenType",
        "numberOfBytes": "1"
      },
      "t_mapping(t_address,t_struct(UserPrediction)39072_storage)": {
        "encoding": "mapping",
        "key": "t_address",
        "label": "mapping(address => struct CryptoPriceGuess.UserPrediction)",
        "numberOfBytes": "32",
        "value": "t_struct(UserPrediction)39072_storage"
      },
      "t_mapping(t_uint256,t_mapping(t_address,t_struct(UserPrediction)39072_storage))": {
        "encoding": "mapping",
        "key": "t_uint256",
        "label": "mapping(uint256 => mapping(address => struct CryptoPriceGuess.UserPrediction))",
        "numberOfBytes": "32",
        "value": "t_mapping(t_address,t_struct(UserPrediction)39072_storage)"
      },
      "t_mapping(t_uint256,t_uint256)": {
        "encoding": "mapping",
        "key": "t_uint256",
        "label": "mapping(uint256 => uint256)",
        "numberOfBytes": "32",
        "value": "t_uint256"
      },
      "t_string_storage": {
        "encoding": "bytes",
        "label": "string",
        "numberOfBytes": "32"
      },
      "t_struct(PredictionEvent)39064_storage": {
        "encoding": "inplace",
        "label": "struct CryptoPriceGuess.PredictionEvent",
        "members": [
          {
            "astId": 39041,
            "contract": "contracts/CryptoPriceGuess.sol:CryptoPriceGuess",
            "label": "title",
            "offset": 0,
            "slot": "0",
            "type": "t_string_storage"
          },
          {
            "astId": 39044,
            "contract": "contracts/CryptoPriceGuess.sol:CryptoPriceGuess",
            "label": "tokenType",
            "offset": 0,
            "slot": "1",
            "type": "t_enum(TokenType)39039"
          },
          {
            "astId": 39046,
            "contract": "contracts/CryptoPriceGuess.sol:CryptoPriceGuess",
            "label": "targetDate",
            "offset": 0,
            "slot": "2",
            "type": "t_uint256"
          },
          {
            "astId": 39048,
            "contract": "contracts/CryptoPriceGuess.sol:CryptoPriceGuess",
            "label": "endTime",
            "offset": 0,
            "slot": "3",
            "type": "t_uint256"
          },
          {
            "astId": 39050,
            "contract": "contracts/CryptoPriceGuess.sol:CryptoPriceGuess",
            "label": "isActive",
            "offset": 0,
            "slot": "4",
            "type": "t_bool"
          },
          {
            "astId": 39052,
            "contract": "contracts/CryptoPriceGuess.sol:CryptoPriceGuess",
            "label": "isFinalized",
            "offset": 1,
            "slot": "4",
            "type": "t_bool"
          },
          {
            "astId": 39054,
            "contract": "contracts/CryptoPriceGuess.sol:CryptoPriceGuess",
            "label": "admin",
            "offset": 2,
            "slot": "4",
            "type": "t_address"
          },
          {
            "astId": 39056,
            "contract": "contracts/CryptoPriceGuess.sol:CryptoPriceGuess",
            "label": "totalPredictions",
            "offset": 0,
            "slot": "5",
            "type": "t_uint256"
          },
          {
            "astId": 39058,
            "contract": "contracts/CryptoPriceGuess.sol:CryptoPriceGuess",
            "label": "actualPrice",
            "offset": 0,
            "slot": "6",
            "type": "t_uint256"
          },
          {
            "astId": 39061,
            "contract": "contracts/CryptoPriceGuess.sol:CryptoPriceGuess",
            "label": "encryptedPriceSum",
            "offset": 0,
            "slot": "7",
            "type": "t_userDefinedValueType(euint32)39960"
          },
          {
            "astId": 39063,
            "contract": "contracts/CryptoPriceGuess.sol:CryptoPriceGuess",
            "label": "decryptedAveragePrice",
            "offset": 0,
            "slot": "8",
            "type": "t_uint32"
          }
        ],
        "numberOfBytes": "288"
      },
      "t_struct(UserPrediction)39072_storage": {
        "encoding": "inplace",
        "label": "struct CryptoPriceGuess.UserPrediction",
        "members": [
          {
            "astId": 39067,
            "contract": "contracts/CryptoPriceGuess.sol:CryptoPriceGuess",
            "label": "encryptedPrice",
            "offset": 0,
            "slot": "0",
            "type": "t_userDefinedValueType(euint32)39960"
          },
          {
            "astId": 39069,
            "contract": "contracts/CryptoPriceGuess.sol:CryptoPriceGuess",
            "label": "timestamp",
            "offset": 0,
            "slot": "1",
            "type": "t_uint256"
          },
          {
            "astId": 39071,
            "contract": "contracts/CryptoPriceGuess.sol:CryptoPriceGuess",
            "label": "exists",
            "offset": 0,
            "slot": "2",
            "type": "t_bool"
          }
        ],
        "numberOfBytes": "96"
      },
      "t_uint256": {
        "encoding": "inplace",
        "label": "uint256",
        "numberOfBytes": "32"
      },
      "t_uint32": {
        "encoding": "inplace",
        "label": "uint32",
        "numberOfBytes": "4"
      },
      "t_userDefinedValueType(euint32)39960": {
        "encoding": "inplace",
        "label": "euint32",
        "numberOfBytes": "32"
      }
    }
  }
}